{
  "contractName": "Voting",
  "abi": [
    {
      "inputs": [],
      "payable": false,
      "stateMutability": "nonpayable",
      "type": "constructor"
    },
    {
      "anonymous": false,
      "inputs": [
        {
          "indexed": false,
          "internalType": "string",
          "name": "_message",
          "type": "string"
        }
      ],
      "name": "newEvent",
      "type": "event"
    },
    {
      "constant": true,
      "inputs": [],
      "name": "admin",
      "outputs": [
        {
          "internalType": "address",
          "name": "",
          "type": "address"
        }
      ],
      "payable": false,
      "stateMutability": "view",
      "type": "function"
    },
    {
      "constant": true,
      "inputs": [
        {
          "internalType": "uint256",
          "name": "",
          "type": "uint256"
        }
      ],
      "name": "ballots",
      "outputs": [
        {
          "internalType": "uint256",
          "name": "id",
          "type": "uint256"
        },
        {
          "internalType": "string",
          "name": "name",
          "type": "string"
        },
        {
          "internalType": "uint256",
          "name": "end",
          "type": "uint256"
        }
      ],
      "payable": false,
      "stateMutability": "view",
      "type": "function"
    },
    {
      "constant": true,
      "inputs": [],
      "name": "nextBallotId",
      "outputs": [
        {
          "internalType": "uint256",
          "name": "",
          "type": "uint256"
        }
      ],
      "payable": false,
      "stateMutability": "view",
      "type": "function"
    },
    {
      "constant": true,
      "inputs": [
        {
          "internalType": "address",
          "name": "",
          "type": "address"
        }
      ],
      "name": "voters",
      "outputs": [
        {
          "internalType": "bool",
          "name": "",
          "type": "bool"
        }
      ],
      "payable": false,
      "stateMutability": "view",
      "type": "function"
    },
    {
      "constant": true,
      "inputs": [
        {
          "internalType": "address",
          "name": "",
          "type": "address"
        },
        {
          "internalType": "uint256",
          "name": "",
          "type": "uint256"
        }
      ],
      "name": "votes",
      "outputs": [
        {
          "internalType": "bool",
          "name": "",
          "type": "bool"
        }
      ],
      "payable": false,
      "stateMutability": "view",
      "type": "function"
    },
    {
      "constant": true,
      "inputs": [
        {
          "internalType": "uint256",
          "name": "id",
          "type": "uint256"
        }
      ],
      "name": "getBallot",
      "outputs": [
        {
          "components": [
            {
              "internalType": "uint256",
              "name": "id",
              "type": "uint256"
            },
            {
              "internalType": "string",
              "name": "name",
              "type": "string"
            },
            {
              "components": [
                {
                  "internalType": "uint256",
                  "name": "id",
                  "type": "uint256"
                },
                {
                  "internalType": "string",
                  "name": "name",
                  "type": "string"
                },
                {
                  "internalType": "uint256",
                  "name": "votes",
                  "type": "uint256"
                }
              ],
              "internalType": "struct Voting.Choice[]",
              "name": "choices",
              "type": "tuple[]"
            },
            {
              "internalType": "uint256",
              "name": "end",
              "type": "uint256"
            }
          ],
          "internalType": "struct Voting.Ballot",
          "name": "",
          "type": "tuple"
        }
      ],
      "payable": false,
      "stateMutability": "view",
      "type": "function"
    },
    {
      "constant": false,
      "inputs": [
        {
          "internalType": "address[]",
          "name": "_voters",
          "type": "address[]"
        }
      ],
      "name": "addVoters",
      "outputs": [],
      "payable": false,
      "stateMutability": "nonpayable",
      "type": "function"
    },
    {
      "constant": false,
      "inputs": [
        {
          "internalType": "string",
          "name": "name",
          "type": "string"
        },
        {
          "internalType": "string[]",
          "name": "_choices",
          "type": "string[]"
        },
        {
          "internalType": "uint256",
          "name": "offset",
          "type": "uint256"
        }
      ],
      "name": "createBallot",
      "outputs": [],
      "payable": false,
      "stateMutability": "nonpayable",
      "type": "function"
    },
    {
      "constant": false,
      "inputs": [
        {
          "internalType": "uint256",
          "name": "ballotId",
          "type": "uint256"
        },
        {
          "internalType": "uint256",
          "name": "choiceId",
          "type": "uint256"
        }
      ],
      "name": "vote",
      "outputs": [],
      "payable": false,
      "stateMutability": "nonpayable",
      "type": "function"
    },
    {
      "constant": true,
      "inputs": [
        {
          "internalType": "uint256",
          "name": "ballotId",
          "type": "uint256"
        }
      ],
      "name": "results",
      "outputs": [
        {
          "components": [
            {
              "internalType": "uint256",
              "name": "id",
              "type": "uint256"
            },
            {
              "internalType": "string",
              "name": "name",
              "type": "string"
            },
            {
              "internalType": "uint256",
              "name": "votes",
              "type": "uint256"
            }
          ],
          "internalType": "struct Voting.Choice[]",
          "name": "",
          "type": "tuple[]"
        }
      ],
      "payable": false,
      "stateMutability": "view",
      "type": "function"
    }
  ],
  "bytecode": "0x608060405234801561001057600080fd5b5033600360006101000a81548173ffffffffffffffffffffffffffffffffffffffff021916908373ffffffffffffffffffffffffffffffffffffffff160217905550611992806100616000396000f3fe608060405234801561001057600080fd5b506004361061009e5760003560e01c8063a3ec138d11610066578063a3ec138d1461016d578063b384abef1461019d578063dc6bfbb5146101b9578063f851a440146101d7578063f9d5ee75146101f55761009e565b80631b0c27da146100a357806320faae8e146100d35780635c632b38146100ef5780638203373a146101215780639f2524ee1461013d575b600080fd5b6100bd60048036036100b8919081019061108a565b610225565b6040516100ca91906115a2565b60405180910390f35b6100ed60048036036100e8919081019061100b565b6103a9565b005b6101096004803603610104919081019061108a565b6105b3565b604051610118939291906116fc565b60405180910390f35b61013b60048036036101369190810190610fc6565b610675565b005b61015760048036036101529190810190610f8a565b61079f565b60405161016491906115c4565b60405180910390f35b61018760048036036101829190810190610f61565b6107ce565b60405161019491906115c4565b60405180910390f35b6101b760048036036101b291908101906110b3565b6107ee565b005b6101c1610a60565b6040516101ce91906116e1565b60405180910390f35b6101df610a66565b6040516101ec9190611587565b60405180910390f35b61020f600480360361020a919081019061108a565b610a8c565b60405161021c91906116bf565b60405180910390f35b60606001600083815260200190815260200160002060030154421015610280576040517f08c379a00000000000000000000000000000000000000000000000000000000081526004016102779061169f565b60405180910390fd5b60016000838152602001908152602001600020600201805480602002602001604051908101604052809291908181526020016000905b8282101561039e578382906000526020600020906003020160405180606001604052908160008201548152602001600182018054600181600116156101000203166002900480601f01602080910402602001604051908101604052809291908181526020018280546001816001161561010002031660029004801561037c5780601f106103515761010080835404028352916020019161037c565b820191906000526020600020905b81548152906001019060200180831161035f57829003601f168201915b50505050508152602001600282015481525050815260200190600101906102b6565b505050509050919050565b600360009054906101000a900473ffffffffffffffffffffffffffffffffffffffff1673ffffffffffffffffffffffffffffffffffffffff163373ffffffffffffffffffffffffffffffffffffffff1614610439576040517f08c379a00000000000000000000000000000000000000000000000000000000081526004016104309061161f565b60405180910390fd5b60025460016000600254815260200190815260200160002060000181905550826001600060025481526020019081526020016000206001019080519060200190610484929190610c84565b508042016001600060025481526020019081526020016000206003018190555060008090505b82518110156105665760016000600254815260200190815260200160002060020160405180606001604052808381526020018584815181106104e857fe5b6020026020010151815260200160008152509080600181540180825580915050906001820390600052602060002090600302016000909192909190915060008201518160000155602082015181600101908051906020019061054b929190610d04565b506040820151816002015550505080806001019150506104aa565b506002600081548092919060010191905055507fc740355753619a7b950bd07f05ac9b5c4ea63a3f51e4b6c08fd4a114b1338c676040516105a69061163f565b60405180910390a1505050565b6001602052806000526040600020600091509050806000015490806001018054600181600116156101000203166002900480601f0160208091040260200160405190810160405280929190818152602001828054600181600116156101000203166002900480156106655780601f1061063a57610100808354040283529160200191610665565b820191906000526020600020905b81548152906001019060200180831161064857829003601f168201915b5050505050908060030154905083565b600360009054906101000a900473ffffffffffffffffffffffffffffffffffffffff1673ffffffffffffffffffffffffffffffffffffffff163373ffffffffffffffffffffffffffffffffffffffff1614610705576040517f08c379a00000000000000000000000000000000000000000000000000000000081526004016106fc9061161f565b60405180910390fd5b60008090505b8282905081101561079a57600160008085858581811061072757fe5b905060200201602061073c9190810190610f61565b73ffffffffffffffffffffffffffffffffffffffff1673ffffffffffffffffffffffffffffffffffffffff16815260200190815260200160002060006101000a81548160ff021916908315150217905550808060010191505061070b565b505050565b60046020528160005260406000206020528060005260406000206000915091509054906101000a900460ff1681565b60006020528060005260406000206000915054906101000a900460ff1681565b600115156000803373ffffffffffffffffffffffffffffffffffffffff1673ffffffffffffffffffffffffffffffffffffffff16815260200190815260200160002060009054906101000a900460ff16151514610880576040517f08c379a00000000000000000000000000000000000000000000000000000000081526004016108779061165f565b60405180910390fd5b60001515600460003373ffffffffffffffffffffffffffffffffffffffff1673ffffffffffffffffffffffffffffffffffffffff168152602001908152602001600020600084815260200190815260200160002060009054906101000a900460ff16151514610924576040517f08c379a000000000000000000000000000000000000000000000000000000000815260040161091b906115df565b60405180910390fd5b6001600083815260200190815260200160002060030154421061097c576040517f08c379a0000000000000000000000000000000000000000000000000000000008152600401610973906115ff565b60405180910390fd5b6001600460003373ffffffffffffffffffffffffffffffffffffffff1673ffffffffffffffffffffffffffffffffffffffff168152602001908152602001600020600084815260200190815260200160002060006101000a81548160ff021916908315150217905550600160008381526020019081526020016000206002018181548110610a0657fe5b9060005260206000209060030201600201600081548092919060010191905055507fc740355753619a7b950bd07f05ac9b5c4ea63a3f51e4b6c08fd4a114b1338c67604051610a549061167f565b60405180910390a15050565b60025481565b600360009054906101000a900473ffffffffffffffffffffffffffffffffffffffff1681565b610a94610d84565b6001600083815260200190815260200160002060405180608001604052908160008201548152602001600182018054600181600116156101000203166002900480601f016020809104026020016040519081016040528092919081815260200182805460018160011615610100020316600290048015610b555780601f10610b2a57610100808354040283529160200191610b55565b820191906000526020600020905b815481529060010190602001808311610b3857829003601f168201915b5050505050815260200160028201805480602002602001604051908101604052809291908181526020016000905b82821015610c6b578382906000526020600020906003020160405180606001604052908160008201548152602001600182018054600181600116156101000203166002900480601f016020809104026020016040519081016040528092919081815260200182805460018160011615610100020316600290048015610c495780601f10610c1e57610100808354040283529160200191610c49565b820191906000526020600020905b815481529060010190602001808311610c2c57829003601f168201915b5050505050815260200160028201548152505081526020019060010190610b83565b5050505081526020016003820154815250509050919050565b828054600181600116156101000203166002900490600052602060002090601f016020900481019282601f10610cc557805160ff1916838001178555610cf3565b82800160010185558215610cf3579182015b82811115610cf2578251825591602001919060010190610cd7565b5b509050610d009190610dac565b5090565b828054600181600116156101000203166002900490600052602060002090601f016020900481019282601f10610d4557805160ff1916838001178555610d73565b82800160010185558215610d73579182015b82811115610d72578251825591602001919060010190610d57565b5b509050610d809190610dac565b5090565b6040518060800160405280600081526020016060815260200160608152602001600081525090565b610dce91905b80821115610dca576000816000905550600101610db2565b5090565b90565b600081359050610de081611921565b92915050565b60008083601f840112610df857600080fd5b8235905067ffffffffffffffff811115610e1157600080fd5b602083019150836020820283011115610e2957600080fd5b9250929050565b600082601f830112610e4157600080fd5b8135610e54610e4f82611767565b61173a565b9150818183526020840193506020810190508360005b83811015610e9a5781358601610e808882610ea4565b845260208401935060208301925050600181019050610e6a565b5050505092915050565b600082601f830112610eb557600080fd5b8135610ec8610ec38261178f565b61173a565b91508082526020830160208301858383011115610ee457600080fd5b610eef8382846118ce565b50505092915050565b600082601f830112610f0957600080fd5b8135610f1c610f17826117bb565b61173a565b91508082526020830160208301858383011115610f3857600080fd5b610f438382846118ce565b50505092915050565b600081359050610f5b81611938565b92915050565b600060208284031215610f7357600080fd5b6000610f8184828501610dd1565b91505092915050565b60008060408385031215610f9d57600080fd5b6000610fab85828601610dd1565b9250506020610fbc85828601610f4c565b9150509250929050565b60008060208385031215610fd957600080fd5b600083013567ffffffffffffffff811115610ff357600080fd5b610fff85828601610de6565b92509250509250929050565b60008060006060848603121561102057600080fd5b600084013567ffffffffffffffff81111561103a57600080fd5b61104686828701610ef8565b935050602084013567ffffffffffffffff81111561106357600080fd5b61106f86828701610e30565b925050604061108086828701610f4c565b9150509250925092565b60006020828403121561109c57600080fd5b60006110aa84828501610f4c565b91505092915050565b600080604083850312156110c657600080fd5b60006110d485828601610f4c565b92505060206110e585828601610f4c565b9150509250929050565b60006110fb8383611519565b905092915050565b61110c81611886565b82525050565b600061111d82611812565b6111278185611853565b935083602082028501611139856117f7565b8060005b85811015611175578484038952815161115685826110ef565b945061116183611835565b925060208a0199505060018101905061113d565b50829750879550505050505092915050565b600061119282611807565b61119c8185611842565b9350836020820285016111ae856117e7565b8060005b858110156111ea57848403895281516111cb85826110ef565b94506111d683611828565b925060208a019950506001810190506111b2565b50829750879550505050505092915050565b61120581611898565b82525050565b60006112168261181d565b6112208185611864565b93506112308185602086016118dd565b61123981611910565b840191505092915050565b600061124f8261181d565b6112598185611875565b93506112698185602086016118dd565b61127281611910565b840191505092915050565b600061128a602583611875565b91507f766f7465722063616e206f6e6c7920766f7465206f6e636520666f722061206260008301527f616c6c6f740000000000000000000000000000000000000000000000000000006020830152604082019050919050565b60006112f0602383611875565b91507f63616e206f6e6c7920766f746520756e74696c2062616c6c6f7420656e64206460008301527f61746500000000000000000000000000000000000000000000000000000000006020830152604082019050919050565b6000611356600a83611875565b91507f6f6e6c792061646d696e000000000000000000000000000000000000000000006000830152602082019050919050565b6000611396601b83611875565b91507f42616c6c6f742063726561746564207375636365737366756c6c7900000000006000830152602082019050919050565b60006113d6601483611875565b91507f6f6e6c7920766f746572732063616e20766f74650000000000000000000000006000830152602082019050919050565b6000611416601a83611875565b91507f596f757220766f746520686173206265656e20636f756e7465640000000000006000830152602082019050919050565b6000611456602e83611875565b91507f63616e6e6f7420736565207468652062616c6c6f7420726573756c742062656660008301527f6f72652062616c6c6f7420656e640000000000000000000000000000000000006020830152604082019050919050565b60006080830160008301516114c76000860182611569565b50602083015184820360208601526114df828261120b565b915050604083015184820360408601526114f98282611187565b915050606083015161150e6060860182611569565b508091505092915050565b60006060830160008301516115316000860182611569565b5060208301518482036020860152611549828261120b565b915050604083015161155e6040860182611569565b508091505092915050565b611572816118c4565b82525050565b611581816118c4565b82525050565b600060208201905061159c6000830184611103565b92915050565b600060208201905081810360008301526115bc8184611112565b905092915050565b60006020820190506115d960008301846111fc565b92915050565b600060208201905081810360008301526115f88161127d565b9050919050565b60006020820190508181036000830152611618816112e3565b9050919050565b6000602082019050818103600083015261163881611349565b9050919050565b6000602082019050818103600083015261165881611389565b9050919050565b60006020820190508181036000830152611678816113c9565b9050919050565b6000602082019050818103600083015261169881611409565b9050919050565b600060208201905081810360008301526116b881611449565b9050919050565b600060208201905081810360008301526116d981846114af565b905092915050565b60006020820190506116f66000830184611578565b92915050565b60006060820190506117116000830186611578565b81810360208301526117238185611244565b90506117326040830184611578565b949350505050565b6000604051905081810181811067ffffffffffffffff8211171561175d57600080fd5b8060405250919050565b600067ffffffffffffffff82111561177e57600080fd5b602082029050602081019050919050565b600067ffffffffffffffff8211156117a657600080fd5b601f19601f8301169050602081019050919050565b600067ffffffffffffffff8211156117d257600080fd5b601f19601f8301169050602081019050919050565b6000819050602082019050919050565b6000819050602082019050919050565b600081519050919050565b600081519050919050565b600081519050919050565b6000602082019050919050565b6000602082019050919050565b600082825260208201905092915050565b600082825260208201905092915050565b600082825260208201905092915050565b600082825260208201905092915050565b6000611891826118a4565b9050919050565b60008115159050919050565b600073ffffffffffffffffffffffffffffffffffffffff82169050919050565b6000819050919050565b82818337600083830152505050565b60005b838110156118fb5780820151818401526020810190506118e0565b8381111561190a576000848401525b50505050565b6000601f19601f8301169050919050565b61192a81611886565b811461193557600080fd5b50565b611941816118c4565b811461194c57600080fd5b5056fea365627a7a72315820fbe71c90bcd69d9cfb0dc652659708079a23a5d015c79454cab3dd621b6767b76c6578706572696d656e74616cf564736f6c63430005100040",
  "source": "pragma solidity >=0.4.0 <0.7.0;\npragma experimental ABIEncoderV2;\n\ncontract Voting {\n  mapping(address => bool) public voters;\n  struct Choice {\n    uint id;\n    string name;\n    uint votes;\n  }\n  struct Ballot {\n    uint id;\n    string name;\n    Choice[] choices;\n    uint end;\n  }\n  mapping(uint => Ballot) public ballots;\n  uint public nextBallotId;\n  address public admin;\n  mapping(address => mapping(uint => bool)) public votes;\n  event newEvent(string _message);\n  \n  constructor() public {\n    admin = msg.sender;\n  }\n\n  function getBallot(uint id) external view returns(Ballot memory) {\n    return ballots[id];\n  }\n  \n  function addVoters(address[] calldata _voters) external onlyAdmin() {\n    for(uint i = 0; i < _voters.length; i++) {\n        voters[_voters[i]] = true;\n    }\n  }\n\n  function createBallot(\n    string memory name,\n    string[] memory _choices,\n    uint offset\n    ) public onlyAdmin() {\n      ballots[nextBallotId].id = nextBallotId;\n      ballots[nextBallotId].name = name;\n      ballots[nextBallotId].end = now + offset;\n      for(uint i = 0; i < _choices.length ; i++) {\n        ballots[nextBallotId].choices.push(Choice(i, _choices[i], 0));\n      }\n      nextBallotId++;\n      emit newEvent('Ballot created successfully');\n  }\n\n  function vote(uint ballotId, uint choiceId) external {\n    require(voters[msg.sender] == true, 'only voters can vote');\n    require(votes[msg.sender][ballotId] == false, 'voter can only vote once for a ballot');\n    require(now < ballots[ballotId].end, 'can only vote until ballot end date');\n    votes[msg.sender][ballotId] = true;\n    ballots[ballotId].choices[choiceId].votes++;\n    emit newEvent('Your vote has been counted');\n  }\n\n  //If `pragma experimental ABIEncoderV2`\n  function results(uint ballotId) \n    view \n    external \n    returns(Choice[] memory) {\n    require(now >= ballots[ballotId].end, 'cannot see the ballot result before ballot end');\n    return ballots[ballotId].choices;\n  }\n\n  //If no `pragma experimental ABIEncoderV2`\n  //function results(uint ballotId) \n  //  view \n  //  external \n  //  returns(uint[] memory, string[] memory, uint[]memory) {\n  //  require(now >= ballots[ballotId].end, 'can only see result after ballot end');\n  //  Choice[] storage choices = ballots[ballotId].choices;\n  //  uint[] memory ids = new uint[](choices.length);\n  //  string[] memory names = new string[](choices.length);\n  //  uint[] memory votes = new uint[](choices.length);\n  //  for(uint i = 0; i < choices.length; i++) {\n  //    ids[i] = choices[i].id;\n  //    names[i] = choices[i].name;\n  //    votes[i] = choices[i].votes;\n  //  }\n  //  return(ids, names, votes);\n  //}\n\n  modifier onlyAdmin() {\n    require(msg.sender == admin, 'only admin');\n    _;\n  }\n}",
  "sourcePath": "/var/www/html/eattheblocks-pro-master/vueDap30/day14_voting/contracts/Voting.sol",
  "compiler": {
    "name": "solc",
    "version": "0.5.16+commit.9c3226ce.Emscripten.clang"
  },
  "schemaVersion": "3.3.3",
  "updatedAt": "2021-01-29T09:55:01.988Z",
  "networkType": "ethereum",
  "devdoc": {
    "methods": {}
  },
  "userdoc": {
    "methods": {}
  }
}